:020000021000EC
:1000000000000420559E01008D9E0100095E010044
:10001000919E0100195E0100215E010000000000B8
:1000200000000000000000000000000091750100C9
:10003000999E010000000000297601003976010038
:1000400075DA0100CD5001009F9E01009F9E0100C6
:100050009F9E01009F9E01009F9E01009F9E0100A8
:100060009F9E01009F9E0100255101000D5101003E
:100070009F9E010009DC01009F9E0100E5500100E8
:100080009F9E01009F9E01009F9E01009F9E010078
:100090009F9E01009F9E01009F9E01009F9E010068
:1000A0009F9E01009F9E01009F9E01009F9E010058
:1000B0009F9E01009F9E01000000000000000000C4
:1000C0009F9E01009F9E01009F9E01009F9E010038
:1000D0009F9E01009F9E01009F9E01009F9E010028
:1000E0009F9E01009F9E01009F9E01000000000056
:1000F000000000009F9E0100000000009F9E010084
:1001000010B5054C237833B9044B13B10448AFF351
:1001100000800123237010BD28080020000000008B
:10012000E83B020008B5034B1BB103490348AFF39A
:10013000008008BD000000002C080020E83B020001
:10014000154B002B08BF134B9D46A3F5803A0021A9
:100150008B460F461348144A121A0FF00CFB0F4B34
:10016000002B00D098470E4B002B00D09847002062
:10017000002104000D000D48002802D00C4806F0B4
:100180003DFC0FF0C9F92000290007F07BF806F0CC
:1001900032FC00BF00000800000004200000000046
:1001A000E171010028080020A8AC0020FD690100D1
:1001B0000000000008B5054800F047F8044B05486A
:1001C00019780A22BDE8084001F031BD4808002036
:1001D00044080020801400200D21014800F01EB8C2
:1001E0004808002008B54FF4E131074801F0FEFB54
:1001F0000649074801F0D2FC064800F019F810B192
:10020000054B01221A7008BD4C130020B01B0200E0
:1002100080140020480800204408002038B5044617
:100220000D46E8B2012101F08DFD2560204638BD64
:100230000120704708B50078002101F0BFFD4FF4A0
:10024000FA70BDE8084001F033BD10B50121044645
:10025000007801F0B3FD4FF4FA7001F029FD20465B
:10026000BDE81040FFF7E6BF704710B528210446EF
:1002700006F08EFD204610BD10B5084C82600022AD
:10028000C0E9004102734273C0E90422C0E90622BA
:1002900014214FF0FF32C0E9081210BDD01B02003C
:1002A00008B5064B06491A221846FFF7E5FF054A2E
:1002B00005491846BDE8084006F09BBB4C080020E5
:1002C000A00A0020000200206902010000207047FF
:1002D0007047006910B10368DB6818477047490030
:1002E0000023C161C0F828327047036801211B6BED
:1002F000184710B403689C6B0123A4465DF8044BB7
:100300006047D0F82832B3F5807F1FBF5A1CC0F871
:100310002822C01880F8281114BF0120002070473F
:1003200070477047D0F82421D0F820319A421DBF81
:10033000D0F82431C01890F820004FF0FF307047FB
:10034000D0F820310246D0F82401181A48BF00F531
:100350008070A0B1D2F82411D2F8203199420CD08B
:10036000D2F82431D2F824111344013193F820300B
:10037000C9B2C2F82411184670474FF0FF307047D9
:1003800038B504467C2006F0DDFC94F9182094F979
:100390001410054601F02CFF256138BD006908B135
:1003A00001F016BE704707B581F001010091D0F849
:1003B0002832C16900F59472006901F037FE002807
:1003C00014BF0220002003B05DF804FB70B5C2B07A
:1003D00083F00103009302AE04461546134649001C
:1003E0003246006901F043FEB0B9A84211D0D4F8FA
:1003F0002031D4F824210133DBB2934207D0D4F862
:100400002021315C224482F82010C4F820310130D0
:10041000EBE7C0B242B070BD0020FBE738B5D0F8C2
:10042000283214461A44B2F5807F88BFC3F5807421
:10043000054600F59470224618440FF078F9D5F877
:1004400028322344C5F82832204638BDD0F8203160
:10045000D0F82401181A48BF00F5807070470000DA
:1004600038B500254FF47A730446C0E90153094BAF
:100470000360C0E905124FF48072294620300FF066
:100480007AF9C4F82051C4F82852C4F824512046FF
:1004900038BD00BFE01B020010B500F04AF812287A
:1004A0008ABF174B4FF0FF3493F9204100F041F819
:1004B000132888BF124B134888BF93F93021214677
:1004C00098BF4FF0FF32FFF7CBFF00F032F81E2845
:1004D0008ABF0B4B4FF0FF3493F9E04100F029F84D
:1004E0001F2888BF064B084888BF93F9F021214692
:1004F00098BF4FF0FF32BDE81040FFF7B1BF00BF1B
:100500000402002074080020A00A002030B5A1F1E8
:100510001004002500F00F02D3B2092ACCBF3733F4
:1005200030338B73CD7302398C424FEA1010F1D106
:1005300030BD22207047000030B5012185B0192060
:1005400001F000FC0121192001F038FC194B0024B6
:10055000DC604FF080434FF48032C3F85C4503F514
:1005600088330121C3F848232020C3F8082301F071
:10057000E9FB0121212001F0E5FB0121202001F010
:100580001DFC0121212001F019FC0B4B0FCB6D4606
:1005900085E80F00234620464FF0FF3155F8232011
:1005A0000133042BC2F80005C2F86015F6D105B07E
:1005B00030BD00BFF0ED00E02C1C020038B54FF05C
:1005C000805504462146D5F8A800FFF79FFFD5F8CF
:1005D000A40004F11001FFF799FF202038BD0000AE
:1005E00072B64FF08043B022C3F81C25BFF34F8F83
:1005F0000549064BCA6802F4E0621343CB60BFF3BF
:100600004F8F00BFFDE700BF00ED00E00400FA05DA
:10061000C36810B504460BB19B689847204610BDCF
:10062000806910B10368DB68184770477047002382
:100630000374704701207047D0F82031D0F82401AE
:10064000181A48BF00F580707047D0F82421D0F800
:1006500020319A421DBFD0F82431C01890F82000F4
:100660004FF0FF307047D0F82421D0F820319A4263
:100670000CD0D0F82431034493F82020D0F8243152
:100680000133DBB2C0F82431104670474FF0FF3021
:100690007047034610B107C983E8070070477047E9
:1006A000034610B107C983E807007047704710B4CC
:1006B0004468816862100346E40701EB02001B688E
:1006C00048BF8A585DF8044B48BFD358184730B428
:1006D000456884686A100346ED0704EB02001B6856
:1006E00048BFA25830BC48BFD358184710B503685C
:1006F0000446DB699847A069012300220821BDE870
:10070000104001F0A9BE00007FB5836904460E4683
:100710005BB9FC2006F016FB3346054694F91D2014
:1007200094F91C1001F0BAFDA56194F91E20531C28
:1007300005D094F91F30A069032101F04FFE094B49
:1007400000930022084BA06903936946CDE9012478
:1007500001F0C8FF039B13B19B686846984704B03B
:1007600070BD00BF6D070100481C020010B50446B3
:10077000A06901F088FE90B1A06901F099FDD4F85C
:100780002031D4F824210133DBB29342F0D0D4F8E5
:100790002021224482F82000C4F82031E8E710BD6F
:1007A00038B504460D46A06901F07EFE0028FAD057
:1007B0002946A06901F08BFD013018BF012038BD2A
:1007C0002DE9F04F064687B00C46174601EB0208AC
:1007D000B06901F069FE58B3DFF868A0DFF868B0CF
:1007E0004FF00109444528D2756986F81090A8EBAE
:1007F0000403AB423CBFB7FBF5F305FB13750023C5
:10080000CDE90336042300932A4602AB2146B069A2
:10081000CDF808A0CDF814B002F0DCF8059B13B1B8
:100820009B6802A89847337C2BB101F049FAFAE79C
:1008300001F046FACCE72C44D4E7384607B0BDE8CF
:10084000F08F00BF2F0601003C1C020070B5FFF7BF
:1008500070FE50B3164B93F90060164CFFF769FE1B
:10086000012888BF124B4FF000054FF47A7288BF01
:1008700093F910302677C4E901520F4A226098BFDD
:100880004FF0FF332022C4E9052563774FF48072CF
:10089000FF23294604F12000A377E3770EF06BFFD6
:1008A000C4F82051C4F8245170BD4FF0FF36D4E78E
:1008B00004020020CC0C00205C1C020038B50D4660
:1008C0001022002104460EF056FFEB681BB15B6856
:1008D000294620469847EB68E360204638BD002053
:1008E00070477047704710B5D0F84C452CB123685D
:1008F00020465B689847A468F8E710BD38B5D0F883
:100900004C450D4634B1236820469B6829469847DC
:10091000A468F7E738BD0000004870471C1D0200BE
:1009200000487047241D020010B5054B03600446C3
:1009300003F057FF204603F0F9FF204610BD00BF2B
:100940009C1C020010B50446FFF7EEFF20464FF452
:10095000AA6106F01DFA204610BDF7B5D0F84C4547
:1009600005460E460023A4B123683146DF680DF129
:10097000030201AB2046B8479DF803100429034643
:1009800005D0019A284603F039FA03B0F0BDA468F7
:10099000E9E7019A9DF80310F4E770B505460E46A5
:1009A00022B10021BDE8704003F01EB8D0F84C45DC
:1009B0005CB1236800221B6931462046984710B17C
:1009C00001212846EEE7A468F2E72146F9E770B571
:1009D000D0F84C450E46054600213CB1236831460F
:1009E00020465B699847A4680146F6E72846BDE8BB
:1009F000704003F0F9B8F8B5D0F84C4505460E46FE
:100A000017463CB1236820469B693A4631469847D1
:100A1000A468F6E728460121BDE8F84003F042B992
:100A200070B5002186B0044603F034FB0023ADF816
:100A3000063023898DF810301B0AA188E2888DF8D2
:100A400011304FF4897540F20123ADF80450ADF830
:100A50001230022540F20313EF268DF807508DF86F
:100A600009508DF80C100125090A8DF80E20ADF8FB
:100A70001430120A04F10A038DF808608DF80A5048
:100A80008DF80B008DF80D108DF80F2001AD05AE1F
:100A90001C462A4603CAB24218605960154603F143
:100AA0000803F6D112881A80204606B070BD40F2C5
:100AB000023310B50446A0F8C83400F2CA40FFF76C
:100AC0007DFD94F8C834184484F8C80404F599608E
:100AD00010BD00002DE9FF4100238DF80A3090F889
:100AE00048351B4A8DF80830012301928DF80930F2
:100AF0003222C0238DF80B308DF80C2001AB044658
:100B000000F54E7803CBC4F83803C8F8041088F811
:100B10000820D4F84C6509258EB1336800211B6884
:100B200030469847478805F54E73093F00F10901A3
:100B30003A46E0180EF0FBFD3D44B668ECE784F859
:100B40003A5340462D1284F83B5304B0BDE8F0817F
:100B50000902FFFF40F2023330B5A0F808350B4D13
:100B6000002300F20A521C46595D02F8131002EBF2
:100B7000430101330B2B4C70F6D190F80835163336
:100B800080F8083500F5A16030BD00BF881C020068
:100B900073B504460D46164609F00CF84FF4807301
:100BA0000093014633462A46204603F07DFE024B61
:100BB0002360204602B070BD9C1C0200D0F84C356A
:100BC0006BB9C0F84C1590F848350B7190F8483562
:100BD0004A79134480F848350120704713469A68D3
:100BE000002AFBD19960EEE71FB5044603F04DFAE9
:100BF0000146684602F060FC4021684602F0CCFCE9
:100C0000D4F84C4534B123682046DB6969469847DF
:100C1000A468F7E7684602F056FC04B010BD10B5B2
:100C20000446FFF7E1FF2046BDE8104003F014BA88
:100C300010B50D4C2378BFF35B8FDB0712D4204631
:100C400005F0EAFE70B148F25A0242F2413107481B
:100C5000FFF79EFF204605F001FF054A05490348BE
:100C600005F0C7FE014810BDF80D0020FC0D002066
:100C7000000200202909010010B5FFF7D9FF036821
:100C8000BDE810405B6F184710B5FFF7D1FF036850
:100C9000BDE810409B6F184710B5FFF7C9FF036808
:100CA000BDE81040DB6F184702F0CABD02F08CBDF2
:100CB00002F0B6BD704770477047436A93F8700002
:100CC00070470000004870479A1E020000487047B5
:100CD000841E02002DE9F04F044697B04B260F46C4
:100CE0003246002103A80EF046FD2579637B94F877
:100CF0000EA094F80C900193681CC0B2002F40F035
:100D0000958040F20923ADF80C304FF48173ADF8B3
:100D1000103080238DF8133032238DF814300823DF
:100D200001228DF815300B238DF816308DF8212017
:100D300040F202238DF8242042F205418DF82A204A
:100D40008DF82D208DF82F2006224FF0240C4FF027
:100D5000090E0427ADF81830ADF82610022305213E
:100D60004FF010088DF833208DF836204FF0030B2C
:100D700007228DF817508DF81A308DF81DE08DF888
:100D80001F508DF822308DF823308DF82B108DF800
:100D90002CC08DF831C08DF832308DF834108DF8BC
:100DA00035C08DF80E608DF81E708DF829808DF895
:100DB0002EB08DF830708DF837508DF839208DF8C1
:100DC000492044F20202ADF84C2040F207528DF85F
:100DD00038008DF84200ADF8502040F602209DF812
:100DE00004208DF83A101D34ADF844008DF84A10F7
:100DF0008DF852208DF8533044F2030540233246DB
:100E000003A920468DF83BA0ADF83C508DF83F80FB
:100E10008DF840E08DF841708DF84B908DF854308E
:100E20000EF085FC204617B0BDE8F08F0020FAE7F1
:100E3000034610B107C983E807007047704710B434
:100E40004468816862100346E40701EB02001B68F6
:100E500048BF8A585DF8044B48BFD3581847000074
:100E600038B505460A4B45F8C83B0446FFF7E0FE97
:100E700003F0B7FC284602F02EFC04F1740002F0E7
:100E80002AFC04F1680002F026FC204638BD00BFB1
:100E9000481E020010B50446FFF7E2FF20464FF45B
:100EA0008E7105F075FF204610BDFFF7F5BE0000FE
:100EB00010B5034B0360044602F052FA204610BD01
:100EC0006C1D020010B50446FFF7F2FF20462821F2
:100ED00005F05EFF204610BD10B5034B03600446CD
:100EE00002F03EFA204610BD3C1D020010B504463B
:100EF000FFF7F2FF2046342105F04AFF204610BDDF
:100F000010B5034B0360044602F02AFA204610BDD8
:100F1000541D020010B50446FFF7F2FF20463821A9
:100F200005F036FF204610BD38B51C4B0D4619683C
:100F3000C0F80F1099889B7943750446A0F81310E8
:100F400040220221284602F01DFB4022207302218C
:100F5000284602F01CFB402260730321284602F061
:100F600011FBA073284602F0AFFA20B9B2220C4957
:100F70000C4805F04FF9002304F17D02C4E9302349
:100F800004F1D10284F8703084F87C3084F8D030D9
:100F9000C4F81421C4F8183138BD00BF881D020000
:100FA000BF1D02002F1E02002DE9F34104460E462C
:100FB000FFF772FEF28823799A4236D17578012DB7
:100FC00033D1F378202B28D13289072A25D104F197
:100FD0000F0804F11607394640460EF099FBD0B1D0
:100FE000D4F81630C4F80F30207CE17B638BA4F872
:100FF000133001EB0021607CE77C237F009701EB3D
:1010000000412768A07C637501EB0061237D627D50
:101010003F6B2046B847284600E00020F378212B9C
:1010200008BF012002B0BDE8F0810020FAE710B54A
:101030000446FFF731FEFFF7FBFD217B03F06EFA5C
:1010400004F17D03C4F8C0300023C4F8C43084F830
:101050007C3004F1740002F0EEFA94F87C302BB985
:10106000236820469B6BBDE81040184710BD000068
:1010700070B50446FFF710FED4F818512DB14FF4A7
:10108000EF720F490F4805F0C5F804F1D103C4F819
:101090001431FFF7CDFD617B03F09EF984F8D05049
:1010A000C4F8180104F1C80002F0C5FA94F8D03071
:1010B0002BB9236820465B6BBDE87040184770BDB4
:1010C000BF1D02008F1D0200022310B543710023D3
:1010D00083600A4B044640F8683B02F09FFA04F133
:1010E000740002F09BFA04F1C80002F097FAFFF7CF
:1010F0009FFD2146FFF762FD204610BD481E0200FD
:1011000070B504460D46FFF7C7FD84F87050002DFA
:101110003ED194F87C3033B1FFF78AFD217B02F099
:10112000D5FF84F87C5004F17D0304F1740600259A
:101130003046C4F8C030C4F8C45002F07CFA3046DF
:1011400002F072FA28B91549154840F2451205F027
:1011500061F894F8D03033B1FFF76AFD217B02F0DB
:10116000B5FF84F8D05004F1D103C4F8143104F170
:10117000C80500232846C4F8183102F05CFA284656
:1011800002F052FA20B940F24F1204490548DEE756
:1011900004F16800BDE8704002F04DBABF1D0200C6
:1011A0009D1D0200AE1D020010B50446FFF774FD40
:1011B00020460021BDE81040FFF7A2BF38B50D461C
:1011C0000446FFF769FD042D05D020460021BDE847
:1011D0003840FFF795BF38BDF8B5154604460E46B2
:1011E0001F46FFF759FD04232B70F28823799A429A
:1011F0001DD1717801291AD1F278212A08D0222A2A
:101200000BD0202A4FF0000013D12870163401E0D3
:1012100029700F343C600720F8BDB38813F0010338
:1012200008BF19462046FFF76BFF02232B700020F2
:10123000F2E703232B70EFE710B58AB00446FFF7FF
:101240001BFD684602F07AF80A4B0093694604F1E8
:101250006800099402F008FA2046FFF715FD4FF0E8
:10126000FF320021684602F0C5F86846FFF720FE0D
:101270000AB010BD6C1D020070B58EB01546044654
:101280000E46FFF7F9FC01A802F058F80E4B0C953A
:1012900001A9002504F174000193CDE90A468DF8F7
:1012A000345002F0E1F92046FFF7EEFC4FF0FF3238
:1012B000294601A802F09EF801A89DF83440FFF7E6
:1012C0000BFE20460EB070BD3C1D020010B504465A
:1012D000FFF7E2FC94F87C307BB9D4F8C43063B1FA
:1012E000FFF7A6FCD4F8C430217B04F17D0203F0A3
:1012F000B3F810B1012384F87C3010BD2DE9F84318
:101300001E460446894690469DF82070FFF7B4FCBF
:101310000023336094F87030E3B194F87C30CBB99B
:10132000D4F8C450C5F14005454528BF4546B8F13D
:10133000000F05D02A464946D4F8C0000EF0F7F950
:10134000D4F8C4302B44C4F8C430356017B12046FB
:10135000FFF7BCFF2046BDE8F843FFF795BCF0B5AA
:101360000446406A90F8705085B001262DB984F883
:1013700030503546284605B0F0BD04AB002743F891
:10138000047DD4E90A120096FFF7B8FF0399E36AD7
:10139000A26A5B1A0A44E362A26213B984F830605D
:1013A000E8E7606AFFF792FF3D46E3E72DE9F04387
:1013B0001C4691B0904606468946FFF75DFC002C1E
:1013C00008BF01AC4FF00005256002A80CBF012743
:1013D000002701F0B3FF104B029302A906F1C800E9
:1013E000CDE90D84CDE90B698DF83C708DF83D5049
:1013F00002F03AF93046FFF747FC4FF0FF3229463A
:1014000002A801F0F7FF02A89DF83D40FFF778FD24
:10141000204611B0BDE8F083541D020010B5D0F88D
:10142000183104466BB990F8D03053B9FFF700FC7F
:10143000402304F1D102617B02F070FF012384F8A4
:10144000D03010BD70B51E4604460023336094F8BA
:1014500070300846EBB194F8D030D3B9D4F81851B5
:10146000D4F81411954228BF15462A460EF05FF9AC
:101470003560D4F81431D4F818212B44551BC4F826
:101480001431C4F8185125B92046BDE87040FFF763
:10149000C5BF70BD37B50446406A90F870502DB98D
:1014A00084F835500125284603B030BD02AB002238
:1014B00043F8042DD4E90A12FFF7C4FF0199A26A88
:1014C0000A44A262226B13680B441360E36A019919
:1014D0005B1A94F83410E36209B9126802B91BB9B7
:1014E000012384F83530DEE7606AFFF797FF0025B7
:1014F000D9E70000F0B587B00446FFF7CDFBFFF752
:1015000097FB02ADA77B06461022002128460EF06D
:1015100032F93946032340220095304603F03EFA63
:101520002846FFF775F8FFF783FB164B217B0293E4
:10153000402202230027144E0095CDE9037405963E
:1015400003F02CFA2846FFF763F8FFF771FB0F4B07
:10155000617B00954022CDE902370223CDE90446A4
:1015600003F01CFA2846FFF753F8FFF761FB40230E
:10157000D4F81421617B02F0D1FE012084F8D00060
:1015800007B0F0BD2F1001007C1D0200711001009A
:101590006FF01500704703681B69184703689B6963
:1015A000184703689B6A184700290CBF6FF01800A2
:1015B00000207047012070476FF0150070476FF0F2
:1015C00015007047112070477047704770470368D7
:1015D0005B6C1847A0F59A70F9E770477047704741
:1015E000704790F87000704710F8C40C7047D0F83E
:1015F0004432D0F84802181A48BF00F5807070478E
:10160000A0F59A70F3E7D0F84822D0F844329A4215
:101610001DBFD0F84832C01890F844014FF0FF3099
:101620007047A0F59A70EEE7D0F84822D0F844321F
:101630009A420CD0D0F84832034493F84421D0F8B1
:1016400048320133DBB2C0F84832104670474FF0E1
:10165000FF307047A0F59A70E6E7704703681847B7
:10166000034610B107C983E8070070477047034677
:1016700010B107C983E807007047704710B4446889
:10168000816862100346E40701EB02001B6848BF53
:101690008A585DF8044B48BFD358184710B44468C3
:1016A000816862100346E40701EB02001B6848BF33
:1016B0008A585DF8044B48BFD358184738B500F036
:1016C000F1FA094D044695F870301BB1012000F085
:1016D000EFFAF8E700F0E6FA001BC728F6D9BDE8F4
:1016E0003840FEF77DBF00BF4C1300204FF0FF31A4
:1016F00003F01EBA07B502AB012243F8041D1946D8
:10170000FFF7BAFD18B1019803B05DF804FB4FF084
:10171000FF30F9E7A0F58E70FFF7ECBF08B590F841
:10172000703013B1FFF7A8FD08BD1846FCE7A0F51F
:101730009A70F3E707B502A9002301F8013D0122E1
:10174000FFF734FE20B19DF8070003B05DF804FBFD
:101750004FF0FF30F9E7A0F58E70FFF7EBBF2DE9F2
:10176000F04104460D4616461F46DDF81880FFF787
:1017700093FAD4F81C433CB143463A4631462846D6
:10178000A446BDE8F0416047BDE8F08110B50446CD
:10179000FFF782FAD4F818332BB104F543701B68B5
:1017A000BDE81040184710BD90F8703013B10368C1
:1017B000DB6B184718467047A0F59A70F4E70000F5
:1017C000B0F5966F10B511D10421094803F04BFA1A
:1017D000044658B1074B0360074903F0DDFB22467E
:1017E00006490348BDE8104003F0FBBA10BD00BF36
:1017F0006C160020BD1601005B1601005D1601008D
:10180000F7B51F460E4B04460D4640F8043B1646FE
:10181000002110220DF0AFFF002104F1400005F07F
:10182000AFFC04F1540005F045FC089B00932046F2
:101830003B463246294607F02DFF204603B0F0BD57
:1018400068350200F7B5044615461F460E4608F0F7
:10185000B1F9BDF8203000932A463B4601462046A8
:10186000FFF732FC002104F58E7004F02BF94FF4E1
:101870007A73C4F83C31194B236003F174020025DC
:10188000C4F81C2103F1E002F033C4F82021C4F8AD
:1018900034314FF480722946C4F8385104F5A270EF
:1018A0000DF069FFC4F844522B464FF480521821C2
:1018B000C4F84852009504F51370FFF7A1FF1022F9
:1018C000294604F543700DF056FFC4F81C5316B1B9
:1018D0002046FFF7B1FC204603B0F0BDC41E020055
:1018E00038B50546FFF7C8F995F8D03053B9D5F8A3
:1018F0001841FF2C28BFFF24E4B22846FFF7C4F9A3
:10190000204638BD0024F8E710B50446D4F8442238
:10191000D4F848329A42ADBFD4F84432D4F84832B1
:10192000D4F84422D4F84822ABBFC3F1FF039B1A7A
:101930009B1803F1FF33BBB12046FFF7D1FF98B1ED
:10194000236820461B6C9847D4F84432D4F84822C8
:101950000133DBB29342D9D0D4F84422224482F836
:101960004401C4F84432D1E710BD0000104B03F12C
:10197000080210B5026003F17C02C0F81C2103F1DB
:10198000E802F8330446C0F82021C0F8343100F5ED
:101990004370FEF73DFE04F5137007F0A7FE04F553
:1019A0008E7004F0B9F82046FFF75AFA204610BDB1
:1019B000BC1E0200A0F58E70FFF7D8BFA0F5907096
:1019C000FFF7D4BF10B50446FFF7D0FF20464FF411
:1019D000487105F0DDF9204610BDA0F59070FFF7C5
:1019E000F1BFA0F58E70FFF7EDBF00007FB5044694
:1019F000FFF742F91D4BC4F81C332046FFF744F9AA
:101A00001B4B009320461B4B039304F543750026A4
:101A1000CDE90164FFF730F92846FEF7F9FD6DB115
:101A20001022314628460DF0A6FE039B1BB15B68D1
:101A3000694628469847039BC4F818332046FFF7A9
:101A400023F96846FEF7E4FD0B4B00930023019356
:101A50000A4B029369460A4B039304F5137007F08F
:101A60006DFE6846FEF7D4FD04B070BDC1170100DD
:101A700009190100B01E0200ED1601006C160020CD
:101A8000A41E0200A0F59A70FFF7B0BF37B50F4C47
:101A90000F4D00226821204603F04CF82A460D49DC
:101AA00020460D4C04F0A5FF012300934FF4F8529B
:101AB00042F2120300212046FFF7C4FE07492A46DE
:101AC000204603B0BDE8304004F093BF6C16002000
:101AD00000020020674B01004C1300206D1901002B
:101AE00008B50DF05BFA2DE9F84306460D46071DD3
:101AF00000F10709002417F8011B0A22284600F00C
:101B0000ADF82E218046284600F03FF84F4540446E
:101B10000444F0D10A22F179284600F09FF82044CD
:101B2000BDE8F883024B034A1A6000225A607047EE
:101B3000C8160020E81F02002DE9F04106460D46B8
:101B400001EB02080C464445A4EB050707D03368B7
:101B500014F8011B1B68304698470028F3D138461B
:101B6000BDE8F08170B5044608460D460EF07DFCD8
:101B700023680246294620465B68BDE87040184746
:101B800009B1FFF7EFBF0846704703681B681847A5
:101B90000149FFF7E7BF00BF312F020038B5054606
:101BA000FFF7EEFF04462846FFF7F2FF204438BD5A
:101BB00070B58AB00D460AA9002301F8043D012A38
:101BC00098BF0A22B5FBF2F402FB1456F3B2092EB9
:101BD00094BF30333733DBB2254601F8013D002C8A
:101BE000F0D1FFF7CDFF0AB070BD2DE9F0410746F7
:101BF0000E4615462AB90368C9B21B68BDE8F04114
:101C000018470A2A05D1002905DBBDE8F041FFF796
:101C1000CFBFD2B2F9E72D21FFF7B7FF2A4604461E
:101C200071423846FFF7C4FF2044BDE8F08138B563
:101C30000546FFF7DAFF04462846FFF7A9FF2044D0
:101C400038BD10B42AB903685DF8044B1B68C9B2EB
:101C50001847D2B25DF8044BFFF7AABFFFF7F1BFF8
:101C600010B500F027F8FEF767FCFEF7E1FFFEF77E
:101C7000D6FF4FF4E1310648064CFFF7B7FEFEF7FA
:101C8000B1FAFEF797FA002CFBD0AFF30080F8E72B
:101C90004C1300200000000010B5044600F021FFA6
:101CA000204610BD014800F06ABF00BFD0160020DA
:101CB00007F088BC014800F024BF00BFD016002008
:101CC00007F08EBC10B503F0BDFA064C0146204665
:101CD00000F06FFF2046044A0449BDE8104004F0BC
:101CE00088BE00BFD016002000020020991C010011
:101CF00008B590F900305A1C04D120220E490F4833
:101D000004F088FA012259B11F2B86BF03F01F038C
:101D10000B494FF0A04102FA03F3C1F8083508BDA2
:101D20001F2B86BF03F01F0305494FF0A04102FAA5
:101D300003F3C1F80C35F2E7EC1F02008320020028
:101D4000000300502DE9F0411B4D0601AB19804600
:101D5000DC680F469CB9FEF7ECFB80454FF00100B4
:101D600034BF15F906804FF0FF3804F0EBFF35441F
:101D7000002304460370414603F03DFAEC60012F56
:101D800010D006D3022F12D0204600F0C2F8012155
:101D900003E0204600F0BDF800212046BDE8F041F8
:101DA00000F0C4B82046BDE8F04100F0A5B82046D8
:101DB00000F0AFF80321F0E7040200202DE9F34121
:101DC00007468846FEF7B5FB874221D2124C3E01FA
:101DD000A319DD68ADB9FEF7ACFB87424FF00100F7
:101DE00034BFA7574FF0FF3704F0ACFF3444002353
:101DF000054603700122CDF80080394603F005FA4C
:101E0000E5604146284602B0BDE8F041FFF770BFEB
:101E100002B0BDE8F08100BF04020020036818474B
:101E20000B6803607047704710B5044621B9102253
:101E30000DF0A1FC204610BD0022034B42608260E1
:101E40000160C360F6E700BF9C200200074B10B59D
:101E500004460360806A08B103F0D8FC236913B11B
:101E60009B68201D9847204610BD00BF60210200DE
:101E700010B50446FFF7EAFF20467C2104F088FFF6
:101E8000204610BDC36810B52BB90549054840F27E
:101E90003B2204F0BFF9BDE810401B68184700BFA3
:101EA000A8200200C6200200F8B50546064655F8EF
:101EB000044B8CB90D4F386818B14FF0FF3106F064
:101EC00097FC346824B9284605F0F4F82C463560B0
:101ED000386808B106F0A4FCAC4204D004490548B7
:101EE0008B2204F097F92046F8BD00BF709E0020B9
:101EF000CB200200ED20020007B5019004F07AFA31
:101F00000198012108F034FB03B05DF804EB04F004
:101F100087BA07B5019004F06DFA0198002108F026
:101F200027FB03B05DF804EB04F07ABA07B5CDE9FE
:101F3000001004F05FFADDE9001008F0F7FA03B0D2
:101F40005DF804EB04F06CBA0368084618470B68A8
:101F5000036070477047416830B4034671B1D0E9FF
:101F6000032000F0010402B944B1451001EB600008
:101F70000CB149598A58996830BC104730BC704739
:101F800008B5431C04D10F490F48202204F042F940
:101F9000012359B11F2886BF0C4A00F01F004FF0E3
:101FA000A04203FA00F0C2F8080508BD1F2886BF4A
:101FB000064A00F01F004FF0A04203FA00F0C2F8FA
:101FC0000C05F2E7102102008320020000030050FC
:101FD000036870B504460D461B68984704F130004D
:101FE0006567294608F09EFB034B1C60236820466A
:101FF0005B68BDE87040184718170020036870B58B
:10200000094D1B68044698472B68A34205D0616FB1
:1020100004F1300008F086FB2C60236820465B68E2
:10202000BDE87040184700BF181700207FB51D4657
:1020300003680446CDE902211B6898472046FFF754
:10204000DDFF9DF8203083F00103DDE902210093DC
:1020500004F130002B4608F097FB236806465B68C6
:1020600020469847A81B18BF012004B070BD7FB55B
:102070001D4603680446CDE902211B6898472046A7
:10208000FFF7BCFF9DF8203083F00103DDE902215A
:10209000009304F130002B4608F05AFB23680646F3
:1020A0005B6820469847A81B18BF012004B070BD8C
:1020B0007FB50024012615462346224602A8009635
:1020C0008DF8084003F0A1F803A8009623462246A5
:1020D00029468DF80C4003F098F803A808F0F8F9A9
:1020E000002853D002A808F0F3F9B04202D1002032
:1020F00004B070BD214603A8FFF718FF03A8FFF73F
:10210000FBFE0A24002103A8FFF710FF00219DF920
:102110000C00FFF735FF052004F03EFF032103A864
:10212000FFF704FF9DF90C000121FFF729FF0520AF
:1021300004F032FF013CE5D102A8FFF7DDFE2146A5
:102140009DF90800FFF71CFF052004F025FF012181
:102150009DF90C00FFF714FF052004F01DFF01217D
:102160009DF90800FFF70CFF052004F015FF02A8F9
:10217000FFF7CFFE03A8FFF7CCFE03A808F0A8F9ED
:1021800020B102A808F0A4F90028B0D16FF0010036
:10219000AEE7C36810B504460BB19B68984720466C
:1021A00010BD000010B5044621B910220DF0E3FA6D
:1021B000204610BD0022034B426082600160C36074
:1021C000F6E700BF4C21020008B50348FFF76CFE9C
:1021D000BDE8084004F076BFF016002008B50348BB
:1021E000FFF762FEBDE8084004F08ABFF016002049
:1021F000F8B51A4B04460D4640F8043B002116463C
:1022000004F13007FFF7CEFF0021154BA185C4E98B
:102210000711C4E9091163614422A46138460DF035
:10222000AAFA104B63672046FFF7CEFF32462946D5
:1022300084F8785084F879602046FFF739FF94F9E4
:10224000792094F97810384608F02AFA064B20468F
:102250001C60FFF7C3FF2046F8BD00BF60210200ED
:10226000571F0100A086010018170020043008F055
:102270002FB9704710B5034B0360044600F080FA95
:10228000204610BD7821020010B50446FFF7F2FF8A
:102290002046FC2104F07CFD204610BD10B504460C
:1022A00000F032F9014B2360204610BD7821020076
:1022B00038B5036804461B689847204600F005F9C6
:1022C000236805465B6820469847284638BD37B5E1
:1022D0000368019104461B6898470199204600F065
:1022E000F7F8236805465B6820469847284603B000
:1022F00030BD7047416830B4034671B1D0E9032066
:1023000000F0010402B944B1451001EB60000CB1CA
:1023100049598A58996830BC104730BC7047000052
:1023200070B500F14C0690F9DF2090F9DE100446FC
:10233000304608F0ABFDD4E939530DB9DA070ED5B4
:102340005A1004EB6300DB0748BFA35894F8EC1065
:1023500048BF5D5994F9ED2094F9EE30A847D4F8C0
:10236000D810304608F0A8FE224630460249BDE8A3
:10237000704008F079BF00BF0128010070B5044625
:1023800000F14C05D0F8E010284603F0B1F9D4F87C
:10239000F020A2B1D4F8E4301BB9D4F8E830D80763
:1023A0000DD5D4F8F810D4F8F4304E1004EB6100D9
:1023B000C90744BFA159CB5894F8EC109847D4F8FA
:1023C000D810284608F078FE224628460249BDE883
:1023D000704008F049BF00BF012801002DE9F0411D
:1023E0001F46D0F8E03004460D4616462BB117497B
:1023F000174840F2331203F00DFF164AC0E93923A3
:1024000003681B68984784F8EC5084F8ED6084F802
:10241000EE70032D0BD8DFE805F0150210154FF014
:10242000FF333246012104F14C0008F0F7FE236827
:1024300020465B68BDE8F041184733464FF0FF3255
:102440000221F0E73B4632462946ECE788210200AC
:10245000B0210200DD2301007FB50546044655F892
:102460004C6B0193CDE902213668B047DDE90132BA
:102470002846039908F09AFE23685B68204604B05A
:10248000BDE87040184738B50546044655F84C3B42
:102490001B689847284608F08DFF236805465B684F
:1024A00020469847284638BD38B50546044655F8B5
:1024B0004C3B1B689847284608F09CFF236805465C
:1024C0005B6820469847284638BD4C3008F0FABE75
:1024D00010B54C300C4608F037FF204610BD88423E
:1024E00038B504460D460ED0FEF792F810220021B2
:1024F00020460DF040F9EB681BB15B682946204689
:102500009847EB68E36038BD2DE9FF479846364BA6
:102510000360364B43600025354BC3600446C0E979
:102520000555C0E907550F46856085842946006139
:1025300028301646FFF736FE294604F13800FFF72B
:1025400031FE04F1B80A6C222946A4F8485004F17F
:102550004C000DF010F904F1C80929465046FFF768
:1025600063FC29464846FFF75FFC40F20113A4F8DC
:10257000DC304FF47F43A4F8EC30FF2384F8EE30D6
:102580002946C4E93855C4E93C55C4F8D88084F8D4
:10259000DE7084F8DF60C4F8E850C4F8F85068468C
:1025A000FFF742FC69465046FFF799FF6846FEF781
:1025B0002FF829466846FFF737FC69464846FFF77B
:1025C0008EFF6846FEF724F8A3685A1013F0010F37
:1025D00004EB630018BFA258636818BFD35898472C
:1025E000204604B0BDE8F087D0210200212301007D
:1025F000F52201002DE9F043374B0360374B436070
:102600000025374BC360044685B00E46C0E905552A
:10261000C0E9075585608584294600612830174642
:10262000FFF7C0FD294604F13800FFF7BBFD04F1B8
:10263000B8096C222946A4F8485004F14C000DF06A
:102640009AF804F1C80829464846FFF7EDFB2946E9
:102650004046FFF7E9FB40F20113A4F8DC30337980
:1026600084F8DE30337B84F8DF304FF47F43A4F806
:10267000EC30FF2384F8EE302946C4E93865C4E91C
:102680003C55C4F8D870C4F8E850C4F8F85068460F
:10269000FFF7CAFB69464846FFF721FF6846FDF78A
:1026A000B7FF29466846FFF7BFFB69464046FFF77C
:1026B00016FF6846FDF7ACFFA3685A1013F0010F30
:1026C00004EB630018BFA258636818BFD35898473B
:1026D000204605B0BDE8F083D02102007D23010033
:1026E000F52201002DE9FF41036804461B681646E8
:1026F0008846984794F8DC30350103B18EB194F8E0
:10270000DD300BB1012E0CD005F1B800414620445C
:10271000FFF7E5FE23685B68204604B0BDE8F041A2
:10272000184703F067FE06F10C0304EB0313D8F817
:102730000C205B6804F14C0782B10BB904F0DEF8A1
:1027400005F1B80041462044FFF7C9FE0122314699
:10275000384608F099FD03F063FEDBE70BB104F0A7
:10276000E3F8B835002125446846FFF75DFB69466C
:102770002846FFF7B4FE6846FDF74AFF0022E6E769
:102780001FB5194B0360044600216846FFF74CFB58
:10279000002269462046FFF7A5FF6846FDF738FF8F
:1027A00000216846FFF740FB012269462046FFF7FB
:1027B00099FF6846FDF72CFF04F1C800FDF728FFDC
:1027C00004F1B800FDF724FF04F13800FFF7E1FC45
:1027D00004F12800FFF7DDFC206A08B103F016F8C9
:1027E000204604B010BD00BFD021020010B5044641
:1027F000FFF7C6FF2046FC2104F0CAFA204610BDB0
:1028000008B500EB0113D3F8C43023B100EB01107D
:10281000B830FFF737FB08BD036870B504461B6886
:102820000D46984794F8DC30AB422BD065B194F854
:10283000DD304BB9A2686368511004EB6200D20727
:1028400044BF6258D358984703F0D4FD05B3D4F879
:10285000C4305BB104F1B800FFF714FB04F04EF88C
:102860000122002104F14C0008F00EFD03F0D8FD18
:1028700084F8DC5035B994F8DD301BB904F14C0014
:1028800008F0E4FB236820465B68BDE87040184709
:102890002A46294604F14C0008F0F6FCD4F8C4306E
:1028A000002BE3D004F040F8E0E7036870B504467D
:1028B0001B680D46984794F8DD30AB422BD065B1CC
:1028C00094F8DC304BB9A2686368511004EB6200E5
:1028D000D20744BF6258D358984703F08BFD05B325
:1028E000D4F8D4305BB104F1C800FFF7CBFA04F0A0
:1028F00005F80122114604F14C0008F0C5FC03F074
:102900008FFD84F8DD5035B994F8DC301BB904F143
:102910004C0008F09BFB236820465B68BDE87040D4
:1029200018472A46012104F14C0008F0ADFCD4F808
:10293000D430002BE3D003F0F7FFE0E738B50D46C5
:102940001022002104460CF016FFEB681BB15B68F7
:10295000294620469847EB68E360204638BD884208
:1029600038B504460D4605D0FFF713FC294620462E
:10297000FFF7E4FF38BD00002DE9FF411F460123AA
:10298000044680F848300D4628300A991646FFF76D
:10299000E6FF0F4BA3610023E36103F0AFFF236A5F
:1029A00004F14C0823B904F10C0002F0FFFE206290
:1029B00094F8243002930B9B0193236A00933246D0
:1029C0003B462946404608F039FD04B0BDE8F08199
:1029D000412A01007FB505461E4655F84C3BCDE91E
:1029E00002211B6804469847284608F0A1FD90B9CB
:1029F00094F848507DB9089BDDE90221CDE90063D8
:102A000020460823FFF7B8FF236820465B689847F5
:102A1000284604B070BD4FF0FF35F5E7C36810B528
:102A20002BB90549054840F23B2203F0F3FBBDE812
:102A300010401B68184700BFA8200200C6200200F3
:102A4000F0B5044689B04C3008F088FD94F8493060
:102A5000054603B310F47C571DD004F13806314607
:102A60006846FFF76BFF002184F8491004A8FFF7C0
:102A700099FB04A93046FFF772FF04A8FFF789FB12
:102A8000039B1BB139466846FFF7C8FF03F04CFFB4
:102A90006846FFF77EFB94F8483003B315F0FC0559
:102AA0001DD004F1280631466846FFF747FF002194
:102AB00084F8481004A8FFF775FB04A93046FFF717
:102AC0004EFF04A8FFF765FB039B1BB12946684630
:102AD000FFF7A4FF03F028FF6846FFF75AFB09B091
:102AE000F0BD10B5044603F085FC23681BB1237FBD
:102AF0000BB103F019FF0023236003F091FC204683
:102B000010BD10B5044603F075FC236853B9237F4C
:102B10000BB103F0F3FEA06902F0B1FDC4E90201BC
:102B200001232360BDE8104003F07ABC38B50546A8
:102B300003F060FC2C6864B1A86902F0A0FDD5E93F
:102B40000245041B61EB050503F06AFC204629469B
:102B500038BD2546F8E773B5054603F04BFC28461B
:102B6000D5E90446FFF7E2FF201846EB010101908A
:102B7000009103F055FCDDE9001002B070BD08B50E
:102B8000FFF7E9FF4FF47A7200230CF087F808BDD5
:102B900010B5044603F02EFCA06902F070FD00227F
:102BA0000023C4E90201C4E90423BDE8104003F096
:102BB00037BC002310B5002203600023C0E90223C4
:102BC000C0E904230B68816193F8203083F001038E
:102BD00004460377FFF7DCFF204610BD03689B68BF
:102BE0001847000010B50446074B2360002200235D
:102BF000C4E9022300230846A161C4E90433034960
:102C000002F0B6FC204610BDE8210200DD2B0100D9
:102C100007B5009000F10801806902F0E8FC03B0FC
:102C20005DF804FB00F10801806902F00DBD0000B1
:102C300010B5034B03600446FFF7F4FF204610BDB8
:102C4000E8210200036801221B690021184703687C
:102C500000221B691146184780F84C13002070476A
:102C600080F850120020704790F84C03704790F89D
:102C70005002704700207047012070476FF01C0021
:102C800070477047034607C983E8070070477047DD
:102C900010B4426881685410034601EB6200D20709
:102CA00048BF0A591B685DF8044B48BFD358184702
:102CB00000F5467004F006BA00F5467004F020BA3C
:102CC00013B50368019104461B6C9847019920468F
:102CD000FFF7A2FD236820465B6C9847002002B0F6
:102CE00010BDA0F1FC00FFF7EBBF13B50368019125
:102CF00004461B6C984701992046FFF7D6FD2368D0
:102D000020465B6C9847002002B010BDA0F1FC008B
:102D1000FFF7EBBF012070476FF01C0070470020E9
:102D20007047D0F8540308B520B1FFF79FFA003878
:102D300018BF012008BD00000C4B10B503605033D4
:102D40000446C0F8FC30D0F8540310B103685B6847
:102D5000984704F54F70FDF75BFC04F5467004F0EE
:102D6000EDF92046FFF70CFD204610BD08220200B9
:102D7000A0F1FC00FFF7E0BF10B50446FFF7DCFF51
:102D800020464FF4567104F003F8204610BDA0F120
:102D9000FC00FFF7F1BF1FB5044600216846FFF7AE
:102DA00043F8002269462046FFF79CFC6846FDF781
:102DB0002FFC002384F84E3304B010BD1FB5044629
:102DC00000216846FFF730F8012269462046FFF7E8
:102DD00089FC6846FDF71CFC002384F84D3304B0E1
:102DE00010BD10B5044603F005FBD4E940239A4218
:102DF0000ABF94F80841002484F0010403F010FB9A
:102E0000204610BD38B503681B6C0446984704F58E
:102E100003752846FFF7E5FF23685B6C48B9204639
:102E20009847012004F0B6F8236820461B6C9847A9
:102E3000EFE720469847002038BDA0F1FC00FFF7DF
:102E4000E1BF38B5054600F58070FFF7CAFF80F096
:102E500001042846E4B2FFF764FF18B144F40054BB
:102E6000204638BD03F0C6FA95F8145303F0D8FA9B
:102E7000002DF5D144F01004F2E7A0F1FC00FFF7BB
:102E8000E0BF70B504460D4603F0B4FA03F0B2FAA1
:102E900094F8086103F0C4FA56B1D4F80431FF2B5A
:102EA00003F101020ABF0023C4F80421C4F804316D
:102EB000D4F80021531CC4F800312978A154B3F58B
:102EC000807F04BF0023C4F80031D4E940239A4234
:102ED00004BF012384F80831BDE8704003F0A0BAB4
:102EE00038B504460D4603F085FA2046FFF779FF12
:102EF000B0B9D4F804315A1CC4F80421E35C2B7037
:102F0000D4F80431B3F5807F4FF0000308BFC4F854
:102F1000040184F80831012403F082FA204638BD08
:102F20000024F9E713B50DF1080C0CE90C00019B26
:102F30000260C0E90131024BC36002B010BD00BFA6
:102F4000F421020030B587B000250B4B00930446F6
:102F50002B460146084A019502A8FFF7E3FF2A46DF
:102F600002A92046FFF7BEFB02A8FDF751FB012393
:102F700084F84E3307B030BD8130010038B50446C7
:102F8000FFF738FB124B002503F10802583322608B
:102F9000C4F8FC30C4E98055C4E9C35584F808522C
:102FA00084F8145304F5467004F084F8294604F5B7
:102FB0004F70FEF739FF074BC4F84C33012320460E
:102FC00084F85033C4F85453FFF7BCFF204638BD93
:102FD000002202000100000110B586B00B4B0093E7
:102FE000044600230146094A019302A8FFF79AFF0D
:102FF000012202A92046FFF775FB02A8FDF708FB96
:10300000012384F84D3306B010BD00BF9F3101008D
:1030100070B504460D4604F54F7603F0EBF9AE4269
:1030200010D03046FDF7F4FA1022002130460CF0A3
:10303000A2FBEB681BB15B68294630469847EB68FA
:10304000C4F84833D4F848334BB1236847F6FF71CE
:103050001B692046984710B13046FEF713FFBDE8C4
:10306000704003F0DDB9A0F1FC00FFF7D1BF08B557
:10307000D0F848331BB100F54F70FEF703FF08BDD1
:10308000F7B500F5807504462846FFF7AAFE064608
:1030900003F0B0F994F8087203F0C2F977B920464A
:1030A000FFF7F1F950B12046FFF70FFA0DF10701D4
:1030B0008DF807002846FFF7E4FEE9E794F84E3361
:1030C0004BB103F097F994F8087203F0A9F917B11E
:1030D0002046FFF760FE4EB12846FFF782FE28B972
:1030E000204603B0BDE8F040FFF7C1BF03B0F0BD1C
:1030F0002DE9F341044688461646002A49D0036864
:103100001B6C984704F580773846FFF76AFEA0B13C
:10311000236894F84C235B6C20462AB998476FF0DB
:103120000A0002B0BDE8F0819847012003F032FFA9
:10313000236820461B6C9847E6E7054608EB050127
:1031400038460191FFF74DFE30B9019938460135F7
:10315000FFF7C6FEAE42F1D103F04CF994F85033BC
:103160007BB194F84E3363B92046FFF789FF03F033
:1031700041F994F8086203F053F916B92046FFF7B5
:10318000E1FE03F04DF9236820465B6C9847284622
:10319000C7E71046C5E7A0F1FC00FFF7A9BF73B56C
:1031A000044603F027F994F8145303F039F904F5B1
:1031B00003762046FFF778F958B10DF10701304644
:1031C000FFF78EFE28B19DF807102046FFF780F923
:1031D000EFE794F84D333BB104F50370FFF701FEC0
:1031E00010B12046FFF7EAFD6DB103F003F994F842
:1031F000145303F015F935B92046FFF792FD10B9C5
:103200002046FFF734FF02B070BDF8B505460C4606
:10321000164600F503773846FFF7E3FD40B1A719DE
:10322000BC4209D014F8011B2846FFF751F9F7E713
:103230002846FFF7B4FFEEE73046F8BD2DE9F0472A
:1032400004460E461746002A68D003F0D0F805461B
:1032500030B13A4631462046BDE8F047FFF7D5BFCA
:10326000236820461B6C984704F5037903F0C2F8E5
:1032700094F8148303F0D4F8B8F1000F15D1761B3D
:10328000AF4206EB050828D903F0B4F894F814A36C
:1032900003F0C6F8BAF1000F1FD141464846FFF7C8
:1032A000F0FD0135ECE74646E0E794F84C3353B3C4
:1032B000236820465B6C9847012003F06BFE23686F
:1032C00020461B6C984703F095F894F8148303F09C
:1032D000A7F8B8F1000FEBD1D1E703F08BF894F821
:1032E0004F3363B194F84D334BB92046FFF757FF86
:1032F0004846FFF776FD10B92046FFF76DFE03F054
:103300008FF8AF42CFD8236820465B6C9847002DDA
:1033100014BF28466FF00A00BDE8F0871046FBE7AF
:10332000A0F1FC00FFF78ABF08B103F0CBBE03F0A9
:1033300061B808B103F0E4BE03F072B838B50446D2
:103340000025064B4560294640F8083BFEF76CFD1A
:10335000C4E906552584204638BD00BFFC22020082
:10336000074B10B503608369044623B1054906483D
:10337000262202F04FFF0830FDF74AF9204610BD23
:10338000FC220200AC220200D5220200884238B59D
:1033900004460D4605D0FDF73BF929462046FDF7CA
:1033A0008DFA204638BD7FB504460E4603F022F85C
:1033B000A5699DB100216846FEF736FD694604F116
:1033C0000800FFF7E3FF6846FDF722F9012384F8C0
:1033D00020300023E36184F82160A36103F020F82A
:1033E00035B12146284604B0BDE8704000F050B920
:1033F00004B070BD2DE9F041044686B00E46174674
:1034000002F0F8FFA56903F00BF835B301AD002118
:10341000284603F0B5FE02F0EDFFD4E9068323B1A0
:103420000F491048392202F0F5FEE56102F0F8FF7D
:10343000B8F1000F0ED03946284603F0A9FE48B96E
:103440003046FFF771FF20460121FFF7ACFF304601
:10345000FFF76FFF284603F0BCFE06B0BDE8F08121
:10346000AC220200E322020030B5044689B004F128
:10347000080502F0BFFF29466846FDF71FFA002144
:1034800004A8FEF7D1FC04A92846FFF77FFF04A893
:10349000FDF7BEF8E0690023A36108B103F096FED2
:1034A00002F0BEFF039B13B11B686846984768464D
:1034B000FDF7AEF809B030BD0022C0E901220122BB
:1034C00001600273704770470346007B30B1D3E957
:1034D0000020136898428CBF0020012070472DE91E
:1034E000F0410468012606FA01F10023271D82EA53
:1034F000060E17F813400C4204D004F030043AB121
:10350000102C07D10233202BF3D14FF0FF300DE008
:10351000002CF7D0D0F808C042EA030506FA05F8F7
:1035200018EA0C0FEED1202C02D02846BDE8F0811D
:103530004EEA030406FA04F414EA0C0FF5D0E1E7AE
:1035400070B50D4611462A4604461E46FFF7C7FFD2
:10355000002802DA0020207370BD256863684208E5
:1035600005EB8205E98819446B7906FB0313636058
:10357000012303FA00F1A36842EAC0100B43A360E1
:10358000C0B2E9E713460A460121FFF7D9BF134647
:103590000A460021FFF7D4BF13B50A460191002166
:1035A0000446FFF7EFFF019A0021204602B0BDE874
:1035B0001040FFF7ECBF0022C0E9002270477047BF
:1035C0000068704700230B60436813B901604160D5
:1035D00070471960FBE703682BB11A6802B94260B3
:1035E000026000221A601846704710B50468002275
:1035F00023468B4203D083B11A461B68F9E70AB110
:103600000B6813608C4204BF0B68036043688B42F5
:103610004FF0000308BF42600B6010BD10B50446B8
:10362000FFF7C9FF204610BD08B5FFF7C9FFB0FA84
:1036300080F0400908BD70B505462846FFF7C0FF79
:10364000044680B1061F0ED050F8043C30469B68FB
:10365000984740B12846FFF7BEFF54F8043C304677
:10366000DB689847E9E770BD70B505460C46FFF783
:10367000A7FFA561064604B1043421462846FFF79A
:10368000A1FF26B92846BDE87040FFF7D4BF70BD42
:1036900070B505460C46FFF793FF064604B10434A7
:1036A00021462846FFF7A1FFA64204D12846BDE8DF
:1036B0007040FFF7C0BF70BD10B504462046FFF74D
:1036C0007FFF034630B1043804D053F8043CDB6874
:1036D0009847F3E710BD10B50446FFF7EDFF20460D
:1036E000FFF76DFF204610BD7047704703689B6D64
:1036F000184770B586B00023CDF806308DF80A3033
:1037000003898188C2888DF810301B0A12248DF835
:1037100011300323022590F820638DF804408DF8C2
:103720000C100124090A8DF80E208DF81430120AAD
:1037300000F10A038DF805408DF807508DF80B60F5
:103740008DF812408DF813508DF815408DF80D103E
:103750008DF80F2001AC05AE1D46224603CAB242C9
:1037600018605960144603F10803F6D112881A80D4
:10377000284606B070BD000000487047E4250200EE
:10378000004870471C26020000487047E8250200E8
:10379000004870472E260200004870471426020099
:1037A00000487047FE250200036810B504465B6FB1
:1037B0009847D4F8EC0203681B6F984723682046AB
:1037C0009B6FBDE81040184738B5D0F83433012B53
:1037D000044610D10025D4E9C93000F0010203B934
:1037E0004AB14110C4E9C95504EB60000AB16258FE
:1037F000D3589847EFE7D4F834332BB90649074834
:1038000040F2C66202F006FD013BC4F83433BDE865
:10381000384002F005BE00BF0C230200372302002F
:1038200008B5D0F834332BB90349044840F2CD62CF
:1038300002F0F0FC08BD00BF0C2302003723020099
:1038400010B5044602F0D6FDD4F834330133C4F881
:1038500034332BB9034904484FF4D76202F0DAFC41
:1038600010BD00BF0C23020037230200036873B5AC
:103870000446DB6F9847B4F8F8120B0A022B25D0E8
:10388000032B56D0012B04D1236820461B6B98478D
:1038900008B9002018E0236820461B6B984706787B
:1038A000122EF6D1236820461B6B98474578012DD0
:1038B000EFD12368C4F804631B6B2046984784F853
:1038C0000853C4F80003284602B070BD2368C9B28B
:1038D0005B6B0191204698470028DAD02368019954
:1038E0005B6B2046984703780199092BD1D1236857
:1038F00020465B6B984743780199022BC9D1236816
:1039000020465B6B9847236885785B6B019920465E
:103910009847C378019945EA03252368C4F80453FE
:103920005B6B20469847C4F80003012084F8080325
:10393000CAE7C9B20529ACD8DFE801F0030F1923A3
:103940002D37236820469B6B98470378C4F80433CF
:1039500023689B6B20469847E5E723682046DB6B8E
:1039600098470378C4F804332368DB6BF2E72368D5
:1039700020461B6C98470378C4F8043323681B6CFB
:10398000E8E7236820465B6C98470378C4F8043363
:1039900023685B6CDEE7236820469B6C98470378BE
:1039A000C4F8043323689B6CD4E723682046DB6C9F
:1039B00098470378C4F804332368DB6CCAE70B78B4
:1039C000DB0913700B78C3F3411353700B7803F0CA
:1039D0001F0393704B78D3704B8893808B88D38070
:1039E000CB88138170470000036870B504465B6F95
:1039F0000D46984794F80C33022B05D009490A4824
:103A000040F23D1202F006FC084BC4F824330023B8
:103A1000C4F82833236884F8105320469B6FBDE810
:103A2000704018470C230200432302001D3F010091
:103A300038B503680446DB6F984794F8083313B130
:103A40000025284638BDD4F8EC0203685B6C984723
:103A5000D4F804239042F3D8D4F80013121A014486
:103A6000C4F80013C4F80423A2B994F80A5302233B
:103A700084F80C3345B1236884F80A239B6E04F55F
:103A80003D7120469847DCE701212046FFF7ACFF57
:103A90000125D6E7D4F8EC02D4F820430368A2420B
:103AA0001B6C28BF22469847F2E70000036813B555
:103AB0000446DB6F984794F81C33012B06D800238B
:103AC0000F4900931A460F4802F0F8FD94F80C33A2
:103AD00023B100230C4900931A46F4E794F80B3302
:103AE000032B0BD02046FFF7A3FF38B9D4F8EC0224
:103AF0000368DB6C02B0BDE81040184702B010BD8F
:103B00006E2302000E0115809623020038B503686B
:103B10000446DB6F984794F80833012B3BD1D4F867
:103B2000045335B994F809330BB901252CE084F816
:103B30000953D4F82023D4F8EC02D4F80013036816
:103B4000954228BF15462A469B6C9847D4F8003307
:103B5000D4F804232B44551BC4F80033C4F8045391
:103B6000002DE2D194F80923002ADED194F80A53FB
:103B7000022384F80C334DB1236884F80A239B6E2A
:103B800004F53D7120469847284638BD012120465E
:103B9000FFF72AFFC9E70025F6E70000036813B521
:103BA0000446DB6F984794F81C33012B06D800239A
:103BB0000B490C4800931A4602F080FD94F80B3331
:103BC000032B0BD02046FFF7A1FF38B9D4F8EC0245
:103BD0000368DB6C02B0BDE81040184702B010BDAE
:103BE0006E2302000E011580036870B504465B6FFA
:103BF0000D46984794F80C33032B05D009490A4821
:103C00004FF4C37202F006FB084BC4F824330023C0
:103C1000C4F82833236884F8105320469B6FBDE80E
:103C2000704018470C230200E023020037480100CF
:103C300010B503680446DB6F9847012004F21D337A
:103C4000C4F80033C4F8040384F8080310BD036803
:103C500010B50446DB6F984794F81C33042B01BF62
:103C6000B4F82E33A4F8FA32012004F54C7303BFE4
:103C7000C4F80033C4F8040384F80803002010BD1E
:103C8000036810B5DB6F04469847042384F80C33AF
:103C9000236894F8F8221B6FB4F8FA12204698476C
:103CA000012010BD036870B504465B6F0D46984750
:103CB00094F80C33042B05D009490A484FF4EB72F1
:103CC00002F0A8FA084BC4F824330023C4F82833C0
:103CD000236884F8105320469B6FBDE87040184756
:103CE0000C2302000C240200AD3F0100036810B554
:103CF0000446DB6F984794F81C33042B02D0B4F8C9
:103D0000FA328BBB94F8F632012B0FD0022B10D075
:103D100053BB164B01221A80144BC4F80033012008
:103D20000223C4F8043384F8080310BD0F4B0022AB
:103D3000F1E7B4F8FA2222F08F03ABB912F00F0FBB
:103D40000A4902D100230B80E6E7530003F01E036B
:103D500043EAD213023B182202FB034393F83030AC
:103D60009B07EFD50123EEE70020DEE71C170020BC
:103D700010B50368044690B0DB6F9847D4F8EC02A6
:103D8000D4F8202303686946DB6B984704F53D723D
:103D900069462046FFF713FE0023C4F80833C4E940
:103DA000C033012384F80C33236811465B6E9847B7
:103DB00010B010BD036813B50446DB6F984794F844
:103DC0001C33012B06D800230A490B4800931A46DE
:103DD00002F074FC94F80C23012384F82C332AB9E4
:103DE000204602B0BDE81040FFF7C2BF84F82D3373
:103DF00002B010BD6E2302000E0115802DE9F041C6
:103E00001D46036804465B6F0F461646984794F8B4
:103E10000C33012B05D00B490B4840F2BA2202F0BB
:103E2000F9F90A4BC4F824330023C4F82833236873
:103E300084F81073C4E9C56520469B6FBDE8F04166
:103E4000184700BF0C23020034240200EF46010093
:103E5000036870B50446DB6F9847B4F8FC2292B350
:103E600094F8F41294F80833012925D1012B06D0D7
:103E7000D4F8EC020368DB6CBDE870401847D4F856
:103E80000433934201D9C4F804230129D4F804333C
:103E900026D19A4208D9D4F82023B3FBF2F002FBD2
:103EA00010330BB984F80913022384F80B3320462E
:103EB000BDE87040FFF72ABE002BD9D1D4F80433F7
:103EC0009342E2D0D4E7D4F8EC02D4F80423036898
:103ED000002AD0D1032184F80B139B6C11460EE00D
:103EE000D4F8EC020122016884F80B23D4F82023D3
:103EF0000D6CD4F800139A4228BF1A462B46BDE831
:103F00007040184710B503680446DB6F98470023DC
:103F100084F82D33032384F80B3310BD036810B5E8
:103F2000DB6F04469847002284F80C2394F82D2375
:103F300094F8103322B12046BDE81040FFF7E2BFED
:103F400033B9D4F8EC020368BDE81040DB6C1847C5
:103F500094F80B33012B0AD1D4F8EC02032384F834
:103F60000B3303689B6CBDE8104011461847022BC9
:103F700007D1D4F8EC02032384F80B3303681B6CDD
:103F8000F1E710BD036810B5DB6F044698470023C6
:103F900084F82C3394F80C3323B92046BDE8104044
:103FA000FFF7B0BF012384F82D3310BD036810B5AF
:103FB000DB6F04469847002284F80C2394F82D23E5
:103FC00094F8103322B12046BDE81040FFF79ABFA5
:103FD00063B1B4F8FA32A4F82E33B4F8F83284F8A6
:103FE00030332046BDE81040FFF732BFD4F8EC0272
:103FF0000368BDE81040DB6C1847036810B5044641
:104000005B6F984794F8F03283B9D4F8EC020368F8
:1040100021469B689847D4F8EC02036840219B6BCB
:1040200098470123C4F8200384F8F032236820461F
:104030009B6FBDE81040184738B5036804465B6FB6
:10404000984794F81C53236820469B6FEDB298471D
:104050002B1F5842584138BD036810B55B6F0446AA
:1040600098472046FFF7C9FF94F8F1323BB9D4F8DE
:10407000EC0203685B699847012384F8F1322368F6
:1040800020469B6FBDE810401847D0F8EC0203684B
:104090005B6B184738B503685B6F0D46044698475D
:1040A0002B071FBF6A0002F01E0242EAD513023B33
:1040B0001BBF182202FB0343D4F820539D8D2368B5
:1040C00020469B6F9847284638BD00000368F7B527
:1040D0005B6F0E460546984736F08F0701D13207D1
:1040E00006D100231749184800931A4602F0E6FA51
:1040F000740004F01E0444EAD6141823023C03FBA7
:10410000045494F83030DB0709D42846FFF794FFB5
:1041100080B10E490E4840F28C5202F07BF894F8C0
:1041200031303BB1D5F8EC0203683146DB6E98477D
:1041300084F831702B689B6F284603B0BDE8F040CF
:10414000184700BF57240200040115800C23020009
:1041500076240200036873B55B6F0E4604469847E9
:1041600016F0700F01D1310706D100231A491B4800
:1041700000931A4602F0A2FA750005F01E0545EA02
:10418000D6151823023D03FB054595F83030DA07B4
:1041900009D42046FFF750FFB0B11149114840F251
:1041A000CC4202F037F843F0020385F83030D4F8FF
:1041B000EC02036831469B6D984795F831301BB18E
:1041C00031462046FFF782FF23689B6F204602B0EE
:1041D000BDE87040184700BF572402000401158055
:1041E0000C23020076240200036810B50446DB6F3E
:1041F000984794F81C33042B02D0B4F8FA32A3B9D0
:1042000094F8F632022B10D1B4F8FA1231F08F0084
:104210000BD111F00F030AD0B4F8F83223B92046BD
:10422000C9B2FFF797FF012010BD0020FCE7184638
:10423000FAE70000036873B55B6F0E4604469847C3
:1042400016F0700F01D1310706D100231C491D481B
:1042500000931A4602F032FA750005F01E0545EA91
:10426000D615023D182303FB054393F83020D207EF
:1042700009D42046FFF7E0FED8B11349134840F2B5
:10428000F14201F0C7FF93F831301BB131462046AF
:10429000FFF71CFF182303FB0545314695F8303026
:1042A00023F0020385F83030D4F8EC020368DB6DAC
:1042B000984723689B6F204602B0BDE870401847BE
:1042C00057240200040115800C230200762402000A
:1042D000036810B50446DB6F984794F81C33042B31
:1042E00002D0B4F8FA32A3B994F8F632022B10D106
:1042F000B4F8FA1231F08F000BD111F00F030AD08D
:10430000B4F8F83223B92046C9B2FFF793FF012071
:1043100010BD0020FCE71846FAE700002DE9FF4138
:104320009846036803920E465B6F0746984736F03F
:104330008F0403D116F00F0F039A06D100232049F2
:10434000204800931A4602F0B9F9750005F01E05E1
:1043500045EAD6151823023D03FB057595F8303064
:10436000DB070AD43846FFF767FE044688B11649D2
:10437000164840F2AF5201F04DFFAB8D434505D9D1
:1043800013491448009423462246DCE795F831107F
:1043900039B13B6838469B6F9847204604B0BDE86A
:1043A000F081D7F8EC0201680C6E3146A047044654
:1043B0000028EED095F83130013385F83130E8E748
:1043C00057240200040115800C2302007624020009
:1043D0008424020005011580036837B55B6F0D4624
:1043E0000446984715F0700F01D12A0706D1002323
:1043F0001549164800931A4602F060F96B0003F065
:104400001E0343EAD513023B182202FB034393F831
:104410003030DB070AD42046FFF70EFE054660B1B8
:104420000B490C4840F2E95201F0F4FED4F8EC02DA
:10443000036829465B6E98470546236820469B6FB4
:104440009847284603B030BD572402000401158068
:104450000C230200762402002DE9FF4198460368F0
:1044600003920E465B6F0746984736F08F0503D1DF
:1044700016F00F0F039A06D1002322492248009319
:104480001A4602F01BF9740004F01E0444EAD61424
:104490001823023C03FB047494F83030DB070AD481
:1044A0003846FFF7C9FD054688B11849184840F25B
:1044B0000A6201F0AFFEA38D434505D215491648A7
:1044C00000952B462A46DCE794F831303BB13B6837
:1044D00038469B6F9847284604B0BDE8F081D7F86E
:1044E000EC02036831469D6E4346A847054638B145
:1044F00094F83130A4F82E80013384F83130E6E7A7
:10450000E085E4E7D5240200040115800C230200B5
:1045100076240200F324020005011580036837B5F4
:104520005B6F0D460446984715F0700F01D12907BF
:1045300006D100231249134800931A4602F0BEF830
:104540006A0002F01E0242EAD513023B182202FB67
:10455000034393F83020D2070AD42046FFF76CFDBE
:10456000054630B10849094840F2496201F052FE5F
:10457000DD8D236820469B6F9847284603B030BDE9
:1045800057240200040115800C2302007624020047
:10459000036870B50446DB6F0D46984794F81C23FA
:1045A00084F81C53AA42D3B226D0032B09D9032D79
:1045B0008CBF00260126012B05D9012D03D88EB111
:1045C00003E00026F7E786B100264FF4347200219D
:1045D00004F11C000BF0CFF8002384F81D3384F89D
:1045E000F23216B12046FFF7CDFC2368294620465B
:1045F0001B6EBDE87040184770BD036810B50446D7
:10460000DB6F9847D4F8EC0294F8F8120368DB6A81
:104610009847B4F8F8322BB902212046FFF7B8FFCB
:10462000012010BD0321F8E7036810B50446DB6FD5
:10463000984794F8F81284F81D1351B9D4F8EC0295
:1046400003681B6A984703212046FFF7A1FF01205A
:1046500010BD012384F8F232032384F80C3323685D
:104660002046DB6E9847F2E7036810B50446DB6F1F
:10467000984794F8F532C3BB94F8F7320B2B34D833
:10468000DFE803F0060B331033151A331F24292EED
:104690002046BDE81040FFF729BB2046BDE810408A
:1046A000FFF716BE2046BDE81040FFF79DBD20462F
:1046B000BDE81040FFF7A1BF2046BDE81040FFF75E
:1046C000D5B82046BDE81040FFF7B2BA2046BDE895
:1046D0001040FFF7A9BF2046BDE81040FFF7B7BA6A
:1046E0002046BDE81040FFF7CBBA002010BD03689C
:1046F00010B5DB6F04469847002084F80C0394F84B
:104700002D0394F81033D4E9C52190B1012B0BD8B7
:10471000022384F80C33236804F53D7120469B6E18
:10472000BDE81040012218472046BDE81040FFF7C1
:10473000E9BB042B12D12046FFF796FF30B9D4F81D
:10474000EC020368BDE81040DB6C184794F80C33AA
:1047500073B92046BDE81040FFF77ABB032BEED0BB
:104760000120C4E9C02184F80A0384F80833F0E783
:1047700010BD036810B5DB6F044698472046022140
:10478000FFF706FF002384F81E332046FFF7FAFBED
:1047900023682046DB6DBDE810401847036810B55C
:1047A00004465B6F984794F8F1323BB1D4F8EC02C1
:1047B00003689B699847002384F8F13294F81C330E
:1047C000012B03D901212046FFF7E2FE002384F8E4
:1047D0001D3384F81E33236820469B6FBDE81040CC
:1047E0001847036810B504465B6F984794F8F03299
:1047F00053B12046FFF7D2FFD4F8EC020368DB6820
:104800009847002384F8F032236820469B6FBDE868
:104810001040184738B503680D46DB6F04469847CB
:1048200045B994F81C332BB129462046BDE83840E1
:10483000FFF7AEBE38BD036870B50446DB6F98471E
:1048400094F82D3394F8106303B97EB92046FFF72E
:10485000F3FB054650B901464FF4347204F11C00D5
:104860000AF089FF84F81D5384F8F252002384F87B
:104870000C3394F82D3323B12046BDE87040FFF788
:1048800041BBD4F8EC02036856B1DB699847204677
:104890000421FFF77DFE2046BDE87040FFF7D8BA3F
:1048A000BDE87040DB6C18472DE9F0470546984697
:1048B0001D4B45F81C3B04460F4691462E4600F51D
:1048C0003B7A304600211836FDF7AEFA5645F8D14E
:1048D000BDF820302381A4F80490A4F806804FF49A
:1048E0003472002128460AF046FF2822002104F5F0
:1048F0003D700AF040FF00230122C4E9C833C4E937
:10490000CA33C4F8EC72A4F8F03284F8F232C4F876
:10491000343384F8303384F81C2384F81D3384F84E
:104920001E332046BDE8F087642502000D4B70B5AC
:10493000036090F8F03204462BB10B490B4840F26B
:10494000625201F067FCFFF74CFF04F53B7504F180
:104950001C06B54204D0183D2846FBF759FEF8E77F
:10496000204670BD642502000C23020014250200BD
:10497000884238B504460D460ED0FBF749FE10229A
:10498000002120460AF0F7FEEB681BB15B68294660
:1049900020469847EB68E36038BD00002DE9F04FF2
:1049A000914685B0026803930E46526F04469047C5
:1049B00016F0700F03D116F00F0F039B06D10023E2
:1049C0002649274800931A4601F078FE94F8F282AF
:1049D000B8F1000F07D1236820469B6F98474046E7
:1049E00005B0BDE8F08F750005F01E0545EAD61547
:1049F000AF1E4FF0180B0BFB074797F830A01AF0CB
:104A0000010A05D0174918484FF48E6201F002FCE4
:104A1000B9F5806F04D91349144840F27142F5E7A3
:104A2000D4F8EC0202683146D2F850804A46C047BA
:104A300080460028CFD0013D0BFB05450E99281D6F
:104A4000FFF796FF97F8303087F831A043F0010365
:104A500087F83030A7F82C90BDE700BF572402003C
:104A6000040115800C2302002225020044250200C7
:104A7000036837B5DB6F0D460446984715F0700F95
:104A800001D12B0706D100230F49104800931A4685
:104A900001F014FE6B0003F01E0343EAD5118B1ED8
:104AA000182000FB034393F8312052B1013A83F8F8
:104AB00031209B6A2BB1013900FB01400430FDF726
:104AC000E1F903B030BD00BF572402000401158096
:104AD000036837B5DB6F0D460446984715F0700F35
:104AE00001D12B0706D100230F49104800931A4625
:104AF00001F0E4FD6B0003F01E0343EAD5118B1EA9
:104B0000182000FB034393F8312052B1013A83F897
:104B100031209B6A2BB1013900FB01400430FDF7C5
:104B2000B1F903B030BD00BF572402000401158065
:104B300000F078B970B50D46044600214C30164699
:104B4000FDF730FB2DB92A462946204600F015F81E
:104B500004E02EB92946204600F047F8204670BDF3
:104B600032462946F1E710B5044600F051F804F149
:104B70004C00FDF70EFB204610BD032938B5044656
:104B800007D9D31C23F003039A1A891A21F00301D1
:104B90001A460023C4E90433E2600D4605BBC4E9AC
:104BA00006512262256000F0FAF900F0FBF9C4E931
:104BB0000A556060258184F8245004F1300000F02B
:104BC0000DFA00280BDB04F1440000F0FFF9002887
:104BD00005DB04F1480000F0F9F900EAE07038BDA7
:104BE0002369013323616D08D8E737B505460846C8
:104BF00001910AF019FD044638B102460199284690
:104C0000FFF7BBFF6C6103B030BD4FF0FF30FAE738
:104C100070B505680446B5B9A36A1BB1E06A4FF0E8
:104C2000FF31984704F1480000F0D2F904F1440044
:104C300000F0CEF904F1300000F0D8F96069BDE869
:104C400070400AF0F9BCEE6836B9EB6913B105F1B2
:104C500024009847AD68DEE7F36913B106F124003C
:104C60009847F668F0E773B506462731483001905B
:104C700021F0030500F0ADF9B469019806F11803BD
:104C800084B9F3699D4226D8346A5B1BF3616219CB
:104C9000012332622560237100F09DF964B920463A
:104CA00002B070BD2268954211D8E26862B11A6004
:104CB000A368936000F08FF900234FF0FF32C4E93E
:104CC0000532E3612434EAE7A2681A60F2E704F1EE
:104CD0000803A468D4E700F07EF9E0E751F8083C47
:104CE00073B505460C460BB108469847EB6853B3BD
:104CF000A4F12406B34226D82B6AB34223D305F18C
:104D00004800019000F065F9AB69019805F11802BF
:104D1000A3B11D6854F8241C8D420BD30ED144F866
:104D2000183C9B6844F81C3C166002B0BDE870401B
:104D300000F051B903F108029B68E9E7002344F849
:104D4000183C1368EEE702B070BDF8B54B699B1ACA
:104D50001646002BA8BFD2184A61437A4B7100F166
:104D60004407054638460C4600F033F928460368E8
:104D70007BB359696269A1EB020CBCF1000F25DB22
:104D8000914226D19B68A36013B104F108021A6115
:104D90002246036842F80C3F002199601A61AB6A11
:104DA000046020616BB195F8242052B12A68A242B8
:104DB00007D1E2682AB96169E86A891B21EAE171D1
:104DC00098473846BDE8F84000F005B903F10800FF
:104DD000CDE7A36013B104F108021A610023E36078
:104DE000DDE7F8B5144605460F46A2F1240600F0AB
:104DF000D9F854F8103C44F8047C0344024644F8C3
:104E0000103C31462846FFF7A0FF296914F8204CD2
:104E10008C40E968761A05F13000344300F0E8F878
:104E20002046F8BD2DE9F74F04460F4600F0BAF8CA
:104E30004FF00008054607EB000984F8248004F1D0
:104E40004406304600F0C5F8637A01336372636844
:104E50005B1B002B2368D8BF6560019301A91BB1C0
:104E60005A69521B002A33DD236003B11C613046AE
:104E7000C1F8008000F0AFF8019B01A863BB019D61
:104E80004FF0010A002D34D100F08CF8002F82463B
:104E900055DBA9EB0005002D53DCA36A9BB130461E
:104EA00000F097F8A36A43B1226832B15169E06A11
:104EB000A1EB0A0121EAE1719847012384F824302B
:104EC000304600F088F80023237203B0BDE8F08F6D
:104ED00003F108019B68C2E79D681A4600219160B2
:104EE0001146D268002AFAD1016003F108002B466E
:104EF000C4E72B6AD5F808B013B105F12400984730
:104F0000AA69002A0BDB6B6913446B6100F04AF855
:104F1000294602462046FFF718FF5D46B2E72B7987
:104F200022690133DBB213FA02F214BF2B7185F848
:104F300004A005F124012046FFF7D0FEEDE74FF075
:104F4000FF35304600F045F823683BB15969A1EBC5
:104F50000A0121EAE1718D4228BF0D46304600F07A
:104F60003AF8294604F1300000F045F8237A7BB185
:104F7000304600F02EF8237A3BB1002330462372EE
:104F800003B0BDE8F04F00F026B8304600F023F83B
:104F900000F008F8054654E740F8081C704701F097
:104FA00023BC000008B501F01CFA48B1064B186894
:104FB00000F009FE4FF47A72002309F06FFE08BD7D
:104FC00002F038F8FBE700BFF0190020002070471E
:104FD000704701F00FBA01F023BA000008B502498A
:104FE00002F004F8002008BD3426020002F007B8E1
:104FF000012102F001B808B5012341EAE172194626
:1050000002F00FF8431E5842584108BD30B54FF426
:105010007A7540F271246943B1FBF4F189B26A43B5
:105020008380B2FBF4F29DF80C30018092B2032928
:105030004280837106D804230380032A08D80423FE
:10504000438030BDB1F5804FF7D94FF48043F3E78B
:10505000B2F5804FF5D94FF48043F1E703680BB107
:105060000846184770470000044B0022C3E900229D
:105070009A601A61024ADA60704700BF2017002068
:105080005D50010038B504460D46002100F8011BB3
:1050900010220AF070FB6582204638BD08B542F642
:1050A00002110248FFF7EEFF08BD00BF34170020D1
:1050B00007B500234FF48042009311460248FFF7E2
:1050C000A5FF03B05DF804FB48170020034B1A78D6
:1050D000034B53F8223003B11847704724040020D3
:1050E00050170020064B0122C3F80823054B5A78BD
:1050F000FF2A00D1FEE7044A12885A70704700BFA9
:1051000000F000406417002088170020044BD3F8FB
:10511000402122B10022C3F84021D3F8403170472A
:1051200000B00040074B4FF48032C3F80823002240
:10513000C3F84021044B01221A709B6803B1184741
:10514000704700BF00A000408C17002070B50E46CD
:105150000446154605F098F9013609D0204600218D
:1051600005F006FA29462046BDE8704005F0DEB994
:1051700070BD000008B5431C04D10F490F48202220
:1051800001F048F8012359B11F2886BF0C4A00F0EE
:105190001F004FF0A04203FA00F0C2F8080508BD56
:1051A0001F2886BF064A00F01F004FF0A04203FAF6
:1051B00000F0C2F80C05F2E7102102008320020083
:1051C00000030050F8B50F46044615461E4605F08C
:1051D0005BF901370ED094F900003146FFF7CAFFA2
:1051E0002046012105F0C4F929462046BDE8F840D3
:1051F00005F09CB9F8BD0322FFF7A8BF13460022B3
:10520000FFF7E0BF0022FFF7F9BF73B5164604466B
:105210001A460D46069B6EB90193FFF797FF0135BD
:105220000DD0019B94F90000194602B0BDE8704012
:10523000FFF7A0BF02B0BDE87040FFF7C3BF02B0E8
:1052400070BD0000004870473C260200024B1B68FE
:105250000BB1024818477047280400203C26020082
:105260002DE9F843456895F83A600446002E49D187
:1052700003685B68984763681B6A834242D02C6A64
:10528000AF682862041B3048EB68874204EA0304D5
:1052900031D095F83B20D5E90A98A4FB0001D2B3A0
:1052A000C2F1200620FA02F401FA06F6A2F1200368
:1052B00021FA03F334431C4321FA02F619EB0000F0
:1052C000A2F1200C48EB0101C2F1200306FA02F81A
:1052D00004FA0CFC24FA03F348EA0C0804FA02F27C
:1052E00048EA0308821A61EB0801BA4271F100032F
:1052F0000AD2C5E90A21D5E90C23121946EB0306A7
:10530000C5E90C26BDE8F883013446F10006D21B3E
:1053100061F10001EDE733463A4609F0BFFC12EBBC
:10532000090248EB0303BA42044673F100000E463B
:1053300002D2C5E90A23DEE7013441F10006D21B9F
:1053400063F10003F5E700BF40420F00824206D937
:105350008A420BD9884294BF0020012070478842BE
:1053600006D98A428CBF0020012070470120704777
:1053700000207047F7B5466896F83A300546002B8E
:1053800067D196F83930002B63D1FFF769FF6F685A
:105390007A68002A5FD0D7E90C01D2E9003298423E
:1053A00071EB020405D32B685B6903B0BDE8F040E4
:1053B00018471B1A62EB0101D7E9060298428A419D
:1053C0003C6906D3BA68294882420FD19C4228BF63
:1053D0001C463A6AFB6822441A40336A934229D138
:1053E0002349244840F21B1200F014FF97F83B00B9
:1053F000C8B1A0F1200CC0F12002814003FA0CFCDE
:1054000023FA02F203FA00F01B4B41EA0C011143AC
:10541000C01841F10001154A002309F03FFC844205
:1054200028BF0446D5E7A2FB033002FB0101124866
:105430001818EEE72B68019210461B6998472B68F5
:105440005B689847019A0146306AFFF77FFF0028A2
:10545000A9D103B0F0BD3369306AF26818442B68F3
:105460001B69104003B0BDE8F040184740420F00F0
:1054700068260200882602003F420F002DE9F04F07
:10548000436893F8382085B00446002A62D193F827
:105490003A30002B5ED103681B6898472368DB69AC
:1054A0009847066836B92D492D480096334632464E
:1054B00001F004F91F23012202FA03F18E425FFA80
:1054C00083FA02D0013BF7D19A46D0F80480A8F1C4
:1054D00004031C2B4FF0000705D9224922480097EE
:1054E0003B463A46E4E7701E204D4FF0070947F16E
:1054F000FF3109FA03F932463B46C9FB050109F0C1
:10550000CDFB656823680390C5E900775B688B462F
:1055100098470121039A286201FA08F8656808F1A2
:10552000FF33C5E90339C5E9062B002300222046D5
:10553000C5E90A23C5E90C23AE6085F83BA029879D
:1055400085F83A70FFF78CFE204605B0BDE8F04FB5
:10555000FFF710BF05B0BDE8F08F00BFAC2602001A
:105560000E010480C52602000501048040420F00A0
:1055700038B505460C46FFF781FF00F03BFF6B682E
:105580001C60BDE8384000F04BBF70B5044600F029
:1055900031FF2368DB689847636893F83A201AB1B3
:1055A000BDE8704000F03CBF012283F839206368F9
:1055B0005B68A3B12046FFF753FE63685A68D3E9DE
:1055C0000C60D2E90051AE4270EB010107D3D16803
:1055D00059601B68002BEAD090689847E7E763683A
:1055E000002283F839202046FFF7C4FED8E7F7B53C
:1055F000089F01900C4616461D4600F0FBFE0198E0
:10560000FFF72EFE0198A7604368C4E9006559685A
:10561000002229B9E16062B95C60FFF7ABFE0EE0E1
:105620000F68BE424F6875EB0707F3D30A46C96897
:10563000EFE7D460D3E90C23B242AB41EDD203B023
:10564000BDE8F04000F0ECBE38B505460C4600F071
:10565000D1FE6A685368A34209D1DB6853602846CB
:10566000FFF788FEBDE8384000F0DABE1346002B95
:10567000F8D0DA68A242F9D1E268DA60F2E713B54D
:105680000446FFF7FBFE00F0B5FE2046FFF7E8FDFD
:105690006368D3E90C01CDE9000100F0C1FEDDE94A
:1056A000000102B010BD08B5FFF7E9FF08BD00001A
:1056B000024B00221A7006F02FB800BFD817002046
:1056C00008B505F097FF024B01221A7008BD00BF14
:1056D000D81700200048704704270200024B1B68BF
:1056E0000BB10248184770472C0400200427020021
:1056F00091F90C2091F9041005F0C8BB014B186812
:105700000368184720180020014B586803681847A1
:1057100020180020014B98680368184720180020C3
:10572000014BD8680368184720180020014B1869FE
:105730000368184720180020014B58690368184770
:1057400020180020014B9869036818472018002092
:10575000014BD869036818472018002013B5044688
:1057600000F048FE0D4A002352F8041BA14208D164
:105770000B4A002142F8231002B0BDE8104000F0AF
:105780004FBE0133082BEFD100F04AFE002305493C
:10579000054800931A4600F091FF00BFAC270200B5
:1057A00020180020302702000101018013B50446B3
:1057B00000F020FE0F4A0023114652F8040B70B986
:1057C0000D4A41F8234052F8234000F029FE5CB90D
:1057D0000A490B4800942346224600F06FFF01332C
:1057E000082BEAD10024F0E7064B074A1A6020464E
:1057F00002B010BD20180020AC2702005227020082
:1058000020010180401800205D570100024B1B68F9
:1058100003B11847704700BF4018002007B501903A
:1058200000F0E8FD019803B05DF804FB07B50190B6
:1058300000F0F6FD019803B05DF804FB007B7047B3
:1058400038B50D4B03600023C0E9013102730446F3
:105850000A480D46FCF728FB01F034FC55B1084B13
:105860001A6862601C600548FCF71EFB01F048FCEA
:10587000204638BD6560F6E7DC27020048180020A6
:1058800044180020144B10B5036004461348FCF77D
:105890000BFB01F017FCA3682BB1114962680B6880
:1058A000A34212D10A600F4B0C481A68A24204BFEF
:1058B00000221A60FCF7F8FA01F022FC237B13B9EE
:1058C000201F01F073FA204610BD19465B68A34201
:1058D000FBD14A60E7E700BFDC2702004818002040
:1058E000441800207018002010B50446FFF7CAFFC6
:1058F0002046102101F04CFA204610BDF8B50646AE
:1059000017480D46FCF7D0FA01F0DCFB154B1C687C
:10591000A4B1A76887B138460AF0A7FDA8420BD109
:105920002A463146384609F0F3FE28B90C48FCF700
:10593000BBFA01F0E5FB11E06468E9E7072DF5D15A
:1059400009482A46314609F0E3FE0028EED1044812
:10595000FCF7AAFA01F0D4FB044B1C682046F8BD02
:105960004818002044180020CC270200701800209E
:105970000020704700207047036870B51B69012242
:10598000002104469847051E0DDB236802221B698F
:105990000021204698472368064629461B690022B5
:1059A000204698473546284670BD000070B50E4623
:1059B0000025C0E900550F49044630460AF05DFD58
:1059C00030442060294623681A782F2A07D10133F2
:1059D000236051B9084909482A2200F01BFC002A1B
:1059E000F7D0013301312360EDE7FFF787FF6060F7
:1059F000204670BD402802004228020069280200AB
:105A000000687047406808B520B1FFF717FF431ED4
:105A10005842584108BD10B50446FFF7F3FF10B1D6
:105A2000606800B1043810BD406808B520B1FFF7C8
:105A300005FFB0FA80F0400908BD10B50446FFF735
:105A4000F3FF10B1606800B1043810BD4068003841
:105A500018BF0120704700207047F8B50368DB6D60
:105A60000D4604468F1898472E46BE42236806D03E
:105A70005B6D16F8011B204698470130F5D123686D
:105A800020461B6E9847701BF8BDF8B50368DB6DA8
:105A90000D4604468F1898472E46BE42236807D00D
:105AA0009B6D20469847431C02D006F8010BF4E793
:105AB000236820461B6E9847701BF8BD0020704776
:105AC000704700000F4B13B50022044640F8043B1A
:105AD000FFF7B6FE0C4B23606C33636000236361F9
